:060000000A128A115E29BC
:10000800F000030EF1000B1CAB28861B7B28F8229E
:10001800BB0110148716071C33283E18222803102A
:10002800A00D20140130BC0706303C02031D222815
:10003800BC010130BE00A1010310A00C3E1C3328F6
:100048000310A10D21140130BC0706303C02031D2A
:100058003328BC010030BE00A0010310A10C871C8E
:1000680057283E1846280310A40D24140130BC0755
:1000780006303C02031D4628BC010130BE00A50124
:100088000310A40C3E1C57280310A50D251401309D
:10009800BC0706303C02031D5728BC010030BE00D7
:1000A800A4010310A50C071D7B283E186A2803101D
:1000B800A80D28140130BC0706303C02031D6A282D
:1000C800BC010130BE00A9010310A80C3E1C7B280E
:1000D8000310A90D29140130BC0706303C02031D8A
:1000E8007B28BC010030BE00A8010310A90C061B28
:1000F8009528F8220310870D8801BC01BE01871DD1
:10010800892801308700A001A101071C8D28A001C2
:10011800A101871C9128A401A501071D9528A80104
:10012800A901861A9928F8224114061AAA28F82241
:10013800C10100303F02031DA4280130BF00AA28D6
:100148000310BF0DBF1DAA28BF0189010B100C1C8D
:10015800DF280130BB0702303B02031DDA281010EC
:10016800861BDA28071CC2283E18BC28201010104D
:10017800071CC2283E1CC22821101010871CCE283C
:100188003E18C82824101010871CCE283E1CCE28E4
:1001980025101010071DDA283E18D4282810101032
:1001A800071DDA283E1CDA28291010100B308F00A2
:1001B800DC308E000C10710E8300F00E700E0900FA
:100200008A010A14820700340934003408340034A7
:100210000034003407340034003400340034003437
:100220000034003406340134003400340034003427
:100230000034003400340234003400340034033419
:100240000034043405348A010A148207003401346E
:10025000033407340F341F341E341C341834103464
:10026000031383169F0103138312860189018701FB
:10027000880103138316F030860089018701880105
:10028000080003138316811303138312080003135A
:1002900083128B170B108B150B17031383160C147B
:1002A000031383120C100313831208000313831229
:1002B000901610169010031383120800302141216C
:1002C00047215621031383120714BE01B801BC0154
:1002D000BE01A001A101A401A501A801A901BF01BE
:1002E000C101861B87123F180914BF1889143F19D2
:1002F00009153E187D29071787133E1C812907130E
:100300008717071C8D293E18872920088800071C9D
:100310008D293E1C8D2921088800871C99293E18AB
:10032000932924088800871C99293E1C99292508AF
:100330008800071DA5293E189F2928088800071D49
:10034000A5293E1CA5292908880021080021A20012
:100350000A30C00020080021A207C00BAA292208E9
:10036000A30025080021A6000A30C00024080021AF
:10037000A607C00BB6292608A70029080021AA0055
:100380000A30C00028080021AA07C00BC2292A0889
:10039000AB002308BA002708BA072B08BA073A08A7
:1003A000B800C42231082321B20030082321B30051
:1003B0002F082321B400411C712900303F02031D86
:1003C0002A2A3208B5003308B6003408B7000530D1
:1003D000BD000130BD02351CF1290716EA220712C3
:1003E000EA223518F7290716DD220712EA22031040
:1003F000B50C00303D02031DE9290530BD00013078
:10040000BD02361C072A0716EA220712EA2236180E
:100410000D2A0716DD220712EA220310B60C00305F
:100420003D02031DFF290530BD000130BD02371C10
:100430001D2A0716EA220712EA223718232A07166E
:10044000DD220712EA220310B70C00303D02031D23
:10045000152AC1013F1C5D2A2908B7002808B600EB
:100460000530BD000130BD02361C3A2A0716EA22CB
:100470000712EA223618402A0716DD220712EA225E
:100480000310B60C00303D02031D322A0530BD00BA
:100490000130BD02371C502A0716EA220712EA2251
:1004A0003718562A0716DD220712EA220310B70C66
:1004B00000303D02031D482AC101BF1C902A2508B7
:1004C000B7002408B6000530BD000130BD02361C5F
:1004D0006D2A0716EA220712EA223618732A07162F
:1004E000DD220712EA220310B60C00303D02031D84
:1004F000652A0530BD000130BD02371C832A07166E
:10050000EA220712EA223718892A0716DD22071283
:10051000EA220310B70C00303D02031D7B2AC10103
:100520003F1DC32A2108B7002008B6000530BD00D2
:100530000130BD02361CA02A0716EA220712EA2261
:100540003618A62A0716DD220712EA220310B60C77
:1005500000303D02031D982A0530BD000130BD0268
:10056000371CB62A0716EA220712EA223718BC2AD5
:100570000716DD220712EA220310B70C00303D02F5
:10058000031DAE2AC1017129AD01AE01AC013808CD
:10059000AC000A302C02031CD62AAC00AD0A0A308B
:1005A0002D02031CC92AAD01AE0AC92A2C08AF00CE
:1005B0002D08B0002E08B10008000C30C2004630F3
:1005C000C3000430C400C20BE62AC30BE82AC40BE4
:1005D000E32A08000330C2001830C3000230C40010
:1005E000C20BF32AC30BF52AC40BF02AF72A080022
:1005F0003F30C2009D30C300C20BFF2AC30BFC2A50
:04060000012B0800C2
:02400E00313F40
:00000001FF
