:060000000A128A115E29BC
:10000800F000030EF1000B1CAB28861B7B28042391
:10001800BB0110148716071C33283E18222803102A
:10002800A00D20140130BC0706303C02031D222815
:10003800BC010130BE00A1010310A00C3E1C3328F6
:100048000310A10D21140130BC0706303C02031D2A
:100058003328BC010030BE00A0010310A10C871C8E
:1000680057283E1846280310A40D24140130BC0755
:1000780006303C02031D4628BC010130BE00A50124
:100088000310A40C3E1C57280310A50D251401309D
:10009800BC0706303C02031D5728BC010030BE00D7
:1000A800A4010310A50C071D7B283E186A2803101D
:1000B800A80D28140130BC0706303C02031D6A282D
:1000C800BC010130BE00A9010310A80C3E1C7B280E
:1000D8000310A90D29140130BC0706303C02031D8A
:1000E8007B28BC010030BE00A8010310A90C061B28
:1000F800952804230310870D8801BC01BE01871DC4
:10010800892801308700A001A101071C8D28A001C2
:10011800A101871C9128A401A501071D9528A80104
:10012800A901861A992804234114061AAA28042327
:10013800C10100303F02031DA4280130BF00AA28D6
:100148000310BF0DBF1DAA28BF0189010B100C1C8D
:10015800DF280130BB0702303B02031DDA281010EC
:10016800861BDA28071CC2283E18BC28201010104D
:10017800071CC2283E1CC22821101010871CCE283C
:100188003E18C82824101010871CCE283E1CCE28E4
:1001980025101010071DDA283E18D4282810101032
:1001A800071DDA283E1CDA28291010100B308F00A2
:1001B800DC308E000C10710E8300F00E700E0900FA
:100200008A010A14820700340934003408340034A7
:100210000034003407340034003400340034003437
:100220000034003406340134003400340034003427
:100230000034003400340234003400340034033419
:100240000034043405348A010A148207003401346E
:10025000033407340F341F341E341C341834103464
:10026000031383169F0103138312860189018701FB
:10027000880103138316F030860089018701880105
:10028000080003138316811303138312080003135A
:1002900083128B170B108B150B17031383160C147B
:1002A000031383120C100313831208000313831229
:1002B000901610169010031383120800302141216C
:1002C00047215621031383120714BE01B801BC0154
:1002D000BE01A001A101A401A501A801A901BF01BE
:1002E000C101861B87123F180914BF1889143F19D2
:1002F00009153E187D29071787133E1C812907130E
:100300008717071C8D293E18872920088800071C9D
:100310008D293E1C8D2921088800871C99293E18AB
:10032000932924088800871C99293E1C99292508AF
:100330008800071DA5293E189F2928088800071D49
:10034000A5293E1CA5292908880021080021A20012
:100350000A30C00020080021A207C00BAA292208E9
:10036000A30025080021A6000A30C00024080021AF
:10037000A607C00BB6292608A70029080021AA0055
:100380000A30C00028080021AA07C00BC2292A0889
:10039000AB002308BA002708BA072B08BA073A08A7
:1003A000B800D02231082321B20030082321B30045
:1003B0002F082321B400411C712900303F02031D86
:1003C0002A2A3208B5003308B6003408B7000530D1
:1003D000BD000130BD02351CF1290716F6220712B7
:1003E000F6223518F7290716E9220712F62203101C
:1003F000B50C00303D02031DE9290530BD00013078
:10040000BD02361C072A0716F6220712F6223618F6
:100410000D2A0716E9220712F6220310B60C003047
:100420003D02031DFF290530BD000130BD02371C10
:100430001D2A0716F6220712F6223718232A071656
:10044000E9220712F6220310B70C00303D02031D0B
:10045000152AC1013F1C612A290800212321C5005A
:10046000280800212321C6000530BD000130BD024F
:10047000461C3E2A0716F6220712F6224618442A80
:100480000716E9220712F6220310C60C00303D02BF
:10049000031D362A0530BD000130BD02451C542A1B
:1004A0000716F6220712F62245185A2A0716E922DD
:1004B0000712F6220310C50C00303D02031D4C2A22
:1004C000C101BF1C982A250800212321C50024084A
:1004D00000212321C6000530BD000130BD02461CAD
:1004E000752A0716F6220712F62246187B2A0716E7
:1004F000E9220712F6220310C60C00303D02031D4C
:100500006D2A0530BD000130BD02451C8B2A07163F
:10051000F6220712F6224518912A0716E922071239
:10052000F6220310C50C00303D02031D832AC101D1
:100530003F1DCF2A210800212321C50020080021CA
:100540002321C6000530BD000130BD02461CAC2A87
:100550000716F6220712F6224618B22A0716E922D3
:100560000712F6220310C60C00303D02031DA42A18
:100570000530BD000130BD02451CC22A0716F62217
:100580000712F6224518C82A0716E9220712F62292
:100590000310C50C00303D02031DBA2AC1017129A8
:1005A000AD01AE01AC013808AC000A302C02031CCE
:1005B000E22AAC00AD0A0A302D02031CD52AAD0197
:1005C000AE0AD52A2C08AF002D08B0002E08B100C5
:1005D00008000C30C2004630C3000430C400C20B17
:1005E000F22AC30BF42AC40BEF2A08000330C2001E
:1005F0001830C3000230C400C20BFF2AC30B012B0A
:10060000C40BFC2A032B08003F30C2009D30C300FE
:0C061000C20B0B2BC30B082B0D2B08009A
:02400E00313F40
:00000001FF
